:020000040800F2
:10000000880A002029020008E54C0008A9490008D8
:10001000E14C000865070008FD5E000800000000D4
:10002000000000000000000000000000C9530008AC
:100030009909000800000000E94E0008215400085A
:10004000430200084302000843020008430200087C
:10005000430200084302000843020008430200086C
:10006000430200084302000843020008430200085C
:10007000E1070008430200084302000843020008A9
:1000800043020008430200084302000899070008E1
:10009000690700087907000889070008430200087B
:1000A000F954000829550008195500080955000899
:1000B000430200084302000843020008430200080C
:1000C000430200084302000843020008BD50000834
:1000D00043020008ED5E00084302000843020008E6
:1000E00043020008430200084302000843020008DC
:1000F00043020008430200084302000843020008CC
:1001000043020008430200084302000843020008BB
:1001100043020008430200084302000843020008AB
:10012000430200084302000843020008430200089B
:10013000430200084302000843020008430200088B
:10014000430200084302000843020008430200087B
:100150004302000843020008F107000843020008B8
:10016000430200084302000843020008430200085B
:100170004302000843020008430200080000000098
:10018000430200084302000800F002F800F03CF8C7
:100190000AA090E8000C82448344AAF10107DA45E2
:1001A00001D100F031F8AFF2090EBAE80F0013F0F8
:1001B000010F18BFFB1A43F0010318478C99000088
:1001C000AC990000103A24BF78C878C1FAD8520719
:1001D00024BF30C830C144BF04680C6070470000C1
:1001E0000023002400250026103A28BF78C1FBD840
:1001F000520728BF30C148BF0B6070471FB509F0D8
:10020000E0FA1FBD10B510BD00F05AF91146FFF716
:10021000F5FF06F0C5FA00F078F903B4FFF7F2FF36
:1002200003BC00F07BF900000948804709480047FB
:10023000FEE7FEE7FEE7FEE7FEE7FEE7FEE7FEE796
:10024000FEE7FEE704480549054A064B70470000F3
:10025000E55400088901000888040020880A00206D
:10026000880600208806002053EA020C00F069800E
:100270002DE9F04B4FF00006002B1FBFB3FA83F5BA
:1002800003FA05F424FA05F65E4012BF1643B2FAEB
:1002900082F502FA05F4C5F120051EBF22FA05FC1D
:1002A00044EA0C04203556EA044C4FEA144418BFC3
:1002B000641C4FF000084FF00009904271EB030CF2
:1002C00039D3002919BFB1FA81F701FA07F6B0FA5C
:1002D00080F700FA07F6C7F120071EBF20FA07FCD7
:1002E00046EA0C062037B6FBF4FCA7EB0507103FE7
:1002F00007F01F0BCBF120062CFA06F60CFA0BFBCD
:1003000044BFB3460026202FA4BF5E464FF0000B2B
:100310005BEA060C08BF4FF0010B19EB0B0948EB29
:100320000608ABFB027C06FB02CC0BFB03CCC01B1C
:1003300071EB0C01C1E70B46024641464846BDE859
:10034000F08B13B5084318BF4FF0FF300146AFF3F1
:100350000080BDE81C407047032A40F2308010F056
:10036000030C00F0158011F8013BBCF1020F624450
:1003700098BF11F801CB00F8013B38BF11F8013BE1
:10038000A2F1040298BF00F801CB38BF00F8013B8E
:1003900011F0030300F05A80083AC0F0088051F8C9
:1003A000043B083A51F804CBA0E80810F5E7121D09
:1003B0005CBF51F8043B40F8043BAFF30080D20728
:1003C00024BF11F8013B11F801CB48BF11F8012BF4
:1003D00024BF00F8013B00F801CB48BF00F8012B17
:1003E00070474FF0000200B51346944696462039F8
:1003F00022BFA0E80C50A0E80C50B1F12001BFF4DE
:10040000F7AF090728BFA0E80C5048BF0CC05DF843
:1004100004EB890028BF40F8042B08BF704748BF91
:1004200020F8022B11F0804F18BF00F8012B704705
:1004300070477047704710B500F03AF8006810BD7B
:1004400010B5044600F034F8046010BD10B5203A31
:10045000C0F00B80B1E81850A0E81850B1E818506F
:10046000A0E81850203ABFF4F5AF5FEA027C24BF41
:10047000B1E81850A0E8185044BF18C918C0BDE82A
:1004800010405FEA827C24BF51F8043B40F8043BF3
:1004900008BF7047D20728BF31F8023B48BF11F8A8
:1004A000012B28BF20F8023B48BF00F8012B704702
:1004B00000487047180000200048704718000020CE
:1004C0007546FFF7F9FFAE4605006946534620F032
:1004D0000700854618B020B5FFF7B4FEBDE8204000
:1004E0004FF000064FF000074FF000084FF0000BF0
:1004F000AC46ACE8C009ACE8C009ACE8C009ACE85F
:10050000C00921F007018D46704710B50446AFF3CE
:1005100000802046BDE81040FFF77FBE014918204B
:10052000ABBEFEE7260002007047000080B5002049
:10053000C4F202001021012201F010FE80BD000073
:1005400080B50020C4F202001021002201F006FE56
:1005500080BD000080B540F20040C4F202000122DC
:10056000114601F0FBFD80BD80B540F20040C4F2B1
:1005700002000121002201F0F1FD80BD80B582B0B2
:10058000FFF7DEFF7E20B621019100F01DF8FFF796
:10059000CDFFFFF7E9FF0199142000F015F8FFF7F0
:1005A000D9FFFFF7CDFF7D20042100F00DF8FFF704
:1005B000BDFFFFF7C5FF4120022100F005F8FFF75E
:1005C000B5FF02B080BD000080B582B08DF8070095
:1005D0008DF806109DF8070000F07F008DF80700E9
:1005E000FFF7AEFF40F2E810C2F200000DF1070184
:1005F00001224FF0FF3302F0FBFEFFE740F2E8106C
:10060000C2F2000002F0B0FB032801D1FFE7F5E7DA
:1006100040F2E810C2F200000DF1060101224FF095
:10062000FF3302F0E5FEFFE740F2E810C2F20000FF
:1006300002F09AFB032801D1FFE7F5E7FFF776FF09
:1006400002B080BD80B584B08DF80F0002918DF8A6
:100650000720FFF775FF9DF80F0040F080008DF830
:10066000060040F2E810C2F200000DF1060101227E
:10067000642302F0BDFEFFE740F2E810C2F2000082
:1006800002F072FB032801D1FFE7F5E7029940F27F
:10069000E810C2F200000122642302F081FDFFE7AE
:1006A00040F2E810C2F2000002F05EFB032801D124
:1006B000FFE7F5E702999DF8072040F2E810C2F243
:1006C0000000642302F06CFDFFE740F2E810C2F284
:1006D000000002F049FB032801D1FFE7F5E7FFF72F
:1006E00025FF04B080BD000080B584B08DF80F00F8
:1006F00002918DF80720FFF737FF9DF80F0040F0BB
:1007000080008DF8060040F2E810C2F200000DF102
:1007100006010122642302F06BFEFFE740F2E810BD
:10072000C2F2000002F020FB032801D1FFE7F5E749
:1007300002999DF8072040F2E810C2F200006423FD
:1007400002F02EFDFFE740F2E810C2F2000002F0D6
:100750000BFB032801D1FFE7F5E7FFF7FBFE04B031
:1007600080BD0000FFE7FEE780B540F20010C2F256
:10077000000000F0CDFB80BD80B540F20010C2F259
:10078000000000F0C5FB80BD80B540F20010C2F251
:10079000000000F0BDFB80BD80B540F20010C2F249
:1007A000000000F0B5FB80BD80B58EB00D900C91BF
:1007B0000B9201210991BDF82E000190BDF82C008B
:1007C00002900020039004900790089105900C98E7
:1007D00006900D9801A900F0BBF90EB080BD000095
:1007E00080B540F28810C2F2000001F031F880BDFF
:1007F00080B540F22810C2F2000001F029F880BD57
:1008000082B001900198007810384AF6AB21CAF600
:10081000AA21A0FB011000090090009949F6403080
:10082000C0F60000405C0199C8650098042807D311
:10083000FFE701990868042262F30900886506E071
:100840000199086840F2FF3290438865FFE70198FC
:10085000806D02B07047000086B0059000208DF8D2
:1008600013000598806A03900598806910BBFFE724
:100870000398029003281BD80299DFE801F0020DCB
:100880000218059890F82F00C00720B1FFE701205B
:100890008DF81300FFE70CE00598C06AB0F1C07F47
:1008A00004D1FFE701208DF81300FFE701E000E02D
:1008B000FFE745E005988069B0F5005F25D1FFE7C7
:1008C0000398019003281ED80199DFE801F0020681
:1008D000021101208DF8130016E0059890F82F0002
:1008E000C00720B1FFE701208DF81300FFE70BE000
:1008F0000598C06AB0F1C07F04D1FFE701208DF8F0
:100900001300FFE700E0FFE719E0039800900328D9
:1009100004D3FFE70098032804D00EE001208DF8EF
:1009200013000BE0059890F82F00C00720B1FFE7F7
:1009300001208DF81300FFE700E0FFE7FFE7FFE786
:100940009DF8130006B0704784B0039002910192A5
:10095000009303980168086820F4802008600098DC
:1009600003990968486003988068402809D1FFE727
:100970000198039909688860029803990968C8601A
:1009800008E002980399096888600198039909684A
:10099000C860FFE704B070477047000072B6FFE719
:1009A000FEE7000084B002900191029890F82000C8
:1009B0008DF803009DF80300012805D0FFE79DF89E
:1009C000030002280AD1FFE7019A029801684869EA
:1009D0001043486100208DF80F0008E00299486A32
:1009E00040F48020486201208DF80F00FFE79DF859
:1009F0000F0004B07047000088B006900591049283
:100A00000393069890F820008DF807000698006878
:100A1000806800900598806808B9FFE700E0FFE76C
:100A20009DF80700012806D0FFE79DF8070002287F
:100A300040F08080FFE79DF80300400700280CD4B9
:100A4000FFE79DF803000007002806D4FFE79DF8A4
:100A50000300C006002864D5FFE70098C0F30160DA
:100A600002900299012088400399086005988068E7
:100A700068B9FFE705980168C06840EA41500699E7
:100A80000968029A01EB0211C1F880010EE0059994
:100A90004A688868C96840EAC2000843069909683C
:100AA000029A01EB0211C1F88001FFE70598006985
:100AB00006990968029A01EB0211C1F884010598B0
:100AC000007D01280CD1FFE706980068029900EB31
:100AD0000111D1F8840140F48070C1F88401FFE76E
:100AE0000498406806990968029A01EB0211C1F85E
:100AF0008C010498006806990968029A01EB0211BA
:100B0000C1F8880106980068029900EB0111D1F83C
:100B1000800140F00100C1F8800100208DF81F0025
:100B200011E00699486A40F40010486201208DF8EF
:100B30001F0008E00699486A40F4802048620120BE
:100B40008DF81F00FFE79DF81F0008B070470000F8
:100B500086B004900391049800680190049890F87E
:100B600020008DF803009DF80300012806D0FFE760
:100B70009DF80300022840F0B080FFE746F20040F5
:100B8000C4F2000001900199D1F8000240F0010088
:100B9000C1F800020199D1F8000220F47C50C1F89C
:100BA00000020398426A0199D1F8000240EA02204B
:100BB000C1F800020398406900F01F01012088403D
:100BC0000290029A0199D1F81C029043C1F81C02CC
:100BD0000398C069F0B9FFE7029A0199D1F80C02B5
:100BE0009043C1F80C02039A9088D168526940EA98
:100BF0000140019901EBC201C1F84002039A10883B
:100C00009168526940EA0140019901EBC201C1F8C3
:100C10004402FFE70398C06901281ED1FFE7029A4A
:100C20000199D1F80C021043C1F80C02039A908884
:100C30001168526940EA0140019901EBC201C1F813
:100C40004002039A90899168526940EA01400199F3
:100C500001EBC201C1F84402FFE70398806940B983
:100C6000FFE7029A0199D1F804029043C1F8040207
:100C700007E0029A0199D1F804021043C1F8040276
:100C8000FFE70398006940B9FFE7029A0199D1F89C
:100C900014029043C1F8140207E0029A0199D1F8B6
:100CA00014021043C1F81402FFE70398006A0128F8
:100CB00008D1FFE7029A0199D1F81C021043C1F84C
:100CC0001C02FFE70199D1F8000220F00100C1F8F1
:100CD000000200208DF8170008E00499486A40F4EB
:100CE0008020486201208DF81700FFE79DF817006B
:100CF00006B0704781B0009001B0704786B0049094
:100D0000039102920193049890F820008DF803005B
:100D10009DF80300012806D0FFE79DF80300022894
:100D200040F0E880FFE7039880B9FFE70498006887
:100D3000C068800748B9FFE70499486A40F400108A
:100D4000486201208DF81700DDE00FE0049800688C
:100D50000069800748B9FFE70499486A40F4001029
:100D6000486201208DF81700CDE0FFE70498006885
:100D7000039900EB0110D0F8B00100F004000299D3
:100D800088600298806858B9FFE704980068039962
:100D900000EB0110D0F8B001400D029908600AE0A4
:100DA00004980068039900EB0110D0F8B001C00866
:100DB00002994860FFE704980068039900EB01106E
:100DC000D0F8B00100F002000299C86004980068F1
:100DD000039900EB0110D0F8B40100F00F000828CF
:100DE00004D3FFE70299082008610BE0049800682B
:100DF000039900EB0110D0F8B40100F00F00029944
:100E00000861FFE704980068039900EB0110D0F82F
:100E1000B40180B2000A02998861049800680399BD
:100E200000EB0110D0F8B401000C0299486104985D
:100E30000068039900EB0110D0F8B801019908701F
:100E400004980068039900EB0110D0F8B801000A7B
:100E50000199487004980068039900EB0110D0F8DC
:100E6000B801000C0199887004980068039900EBA0
:100E70000110D0F8B801000E0199C87004980068FC
:100E8000039900EB0110D0F8BC0101990871049896
:100E90000068039900EB0110D0F8BC01000A019929
:100EA000487104980068039900EB0110D0F8BC0168
:100EB000000C0199887104980068039900EB0110F7
:100EC000D0F8BC01000E0199C871039838B9FFE74A
:100ED00004980168C86840F02000C86006E00498E3
:100EE0000168086940F020000861FFE700208DF8E4
:100EF000170008E00499486A40F480204862012005
:100F00008DF81700FFE79DF8170006B07047000046
:100F100080B58AB00990002008900998006840695F
:100F200007900998006840680690099800688068F2
:100F3000059009980068C0680490099800680069E5
:100F4000039009980068806902909DF81C00C00712
:100F5000002800F09480FFE79DF81400C00758B304
:100F6000FFE709980168012088609DF81400800758
:100F7000002804D5FFE7099800F0BAFB1BE09DF8B4
:100F800014004007002805D5FFE7089840F40060EA
:100F900008900FE09DF814000007002805D5FFE732
:100FA000089840F48050089003E0099800F09CFBFA
:100FB000FFE7FFE7FFE7FFE79DF81500C00760B315
:100FC000FFE7099801684FF4807088609DF815006C
:100FD0008007002804D5FFE7099800F091FB1BE08B
:100FE0009DF815004007002805D5FFE7089840F454
:100FF000005008900FE09DF815000007002805D567
:10100000FFE7089840F48040089003E0099800F05A
:1010100073FBFFE7FFE7FFE7FFE79DF81600C00758
:1010200060B3FFE7099801684FF4803088609DF84D
:1010300016008007002804D5FFE7099800F068FB38
:101040001BE09DF816004007002805D5FFE708982B
:1010500040F4004008900FE09DF8160000070028BB
:1010600005D5FFE7089840F48030089003E0099820
:1010700000F04AFBFFE7FFE7FFE7FFE7FFE79DF828
:101080001C000007002810D5FFE79DF81000C006DF
:10109000002809D5FFE7089840F4007008900998E7
:1010A00001681020C860FFE7FFE79DF81C004007BB
:1010B00000280FD5FFE79DF810000007002808D58D
:1010C000FFE7099801680820C860099800F076FADF
:1010D000FFE7FFE79DF81C00800700280BD5FFE71E
:1010E00009980068C068800720B1FFE7099800F000
:1010F00069FAFFE7FFE79DF81C004006002810D5BD
:10110000FFE79DF80C00C006002809D5FFE7089806
:1011100040F4806008900998016810200861FFE79A
:10112000FFE79DF81C00800600280FD5FFE79DF81B
:101130000C000007002808D5FFE70998016808207F
:101140000861099800F07EFAFFE7FFE79DF81C00B0
:10115000C00600280BD5FFE70998006800698007E2
:1011600020B1FFE7099800F071FAFFE7FFE79DF86B
:101170001E00800700280FD5FFE79DF81800C00665
:10118000002808D5FFE709980168102048600998F1
:1011900000F060FAFFE7FFE79DF81E00C00778B196
:1011A000FFE79DF818000007002808D5FFE7099819
:1011B000016808204860099800F0AEFAFFE7FFE7F1
:1011C0009DF81D000006002840F18D80FFE79DF886
:1011D00018004007002840F18180FFE79DF81D00BE
:1011E000C00750B1FFE79DF80800C00728B1FFE72E
:1011F000089840F001000890FFE79DF81D00800767
:1012000000280BD5FFE79DF808008007002805D5CA
:10121000FFE7089840F002000890FFE79DF81D00E6
:10122000400700280BD5FFE79DF80800400700287D
:1012300005D5FFE7089840F004000890FFE79DF807
:101240001D000007002848D5FFE79DF8080010F0B2
:10125000700F42D0FFE7029800F070000146019144
:10126000102814D0FFE70198202815D0FFE7019837
:10127000302816D0FFE70198402817D0FFE70198E3
:10128000502818D0FFE70198602819D01DE0089871
:1012900040F00800089019E0089840F0100008900D
:1012A00014E0089840F0200008900FE0089840F003
:1012B000400008900AE0089840F08000089005E09F
:1012C000089840F48070089000E0FFE709980168F2
:1012D000886920F070008861FFE7FFE709980168DE
:1012E00004204860FFE7089848B1FFE7089A099989
:1012F000486A104348620998FFF7FCFCFFE70AB010
:1013000080BD000080B584B00290029820B9FFE74C
:1013100001208DF80F00E0E0029890F8200020B93D
:10132000FFE7029800F0DEF8FFE70298016808681E
:1013300040F00100086000F029FF0190FFE70298EB
:1013400000684068C007A8B9FFE700F01FFF0199D7
:10135000401A0B280DD3FFE70299486A40F4003089
:1013600048620299052081F8200001208DF80F00C5
:10137000B3E0E4E702980168086820F00200086022
:1013800000F004FF0190FFE70298006840688007C2
:10139000002815D5FFE700F0F9FE0199401A0B2847
:1013A0000DD3FFE70299486A40F400304862029981
:1013B000052081F8200001208DF80F008DE0E3E783
:1013C0000298007E012807D1FFE7029801680868AB
:1013D00040F08000086006E002980168086820F08C
:1013E00080000860FFE70298407E012807D1FFE7F0
:1013F00002980168086840F04000086006E0029822
:101400000168086820F040000860FFE70298807ECD
:10141000012807D1FFE702980168086840F0200022
:10142000086006E002980168086820F02000086063
:10143000FFE70298C07E012807D1FFE70298016804
:10144000086820F01000086006E00298016808684B
:1014500040F010000860FFE70298007F012807D1E4
:10146000FFE702980168086840F00800086006E09D
:1014700002980168086820F008000860FFE70298F9
:10148000407F012807D1FFE702980168086840F013
:101490000400086006E002980168086820F0040073
:1014A0000860FFE7029B19685A689868D3F80CC077
:1014B00040EA0C00D3F810C040EA0C005B69184306
:1014C000013A1043C861029900204862029A012142
:1014D00082F820108DF80F00FFE79DF80F0004B090
:1014E00080BD000080B58EB00D9000200C900B9058
:1014F0000A90099008900D98006846F20041C4F2E5
:101500000001884258D1FFE7FFE70020079043F62B
:101510004000C4F20200016841F0007101600068FF
:1015200000F0007007900798FFE7FFE700200690A3
:1015300043F63000C4F20200016841F00801016086
:10154000006800F0080006900698FFE70320089066
:1015500002210991002104910A910B9009200C901D
:1015600040F60040C4F2020008A900F01BFC049AF7
:1015700013200190114600F0A1FE019800F094FEA6
:10158000049A14200290114600F098FE029800F090
:101590008BFE049A15200390114600F08FFE0398ED
:1015A00000F082FE049A16200590114600F086FE97
:1015B000059800F079FEFFE70EB080BD81B0009085
:1015C00001B0704780B588B007900798006846F270
:1015D0000041C4F20001884231D1FFE7079840F290
:1015E0005043C2F2000300216A46FFF787FB28BB85
:1015F000FFE7009840F2052188420BD1FFE740F257
:101600005040C2F2000040F22C41C2F2000104F04E
:10161000D7FC12E0009840F2072188420BD1FFE787
:1016200040F25040C2F2000040F26441C2F20001B8
:1016300004F0C6FC00E0FFE7FFE7FFE7FFE708B0C4
:1016400080BD000081B0009001B0704781B0009073
:1016500001B0704781B0009001B0704780B584B090
:101660000290029890F8200001282FD1FFE70299FC
:10167000022081F8200002980168086820F001002B
:10168000086000F083FD0190FFE702980068406861
:10169000C007A8B1FFE700F079FD0199401A0B28B7
:1016A0000DD3FFE70299486A40F40030486202997E
:1016B000052081F8200001208DF80F000FE0E4E7FD
:1016C0000299002048628DF80F0008E00299486AEC
:1016D00040F40020486201208DF80F00FFE79DF8DC
:1016E0000F0004B080BD000081B0009001B07047D1
:1016F00081B0009001B0704781B0009001B0704798
:1017000081B0009001B0704781B0009001B0704787
:1017100081B0009001B0704781B0009001B0704777
:1017200080B584B002900298806D019000F02EFD8B
:101730000090029890F8350002280DD0FFE702993A
:1017400080204865FFE70299002081F83400FFE718
:1017500001208DF80F0055E002980168086820F01C
:101760001600086002980168486920F0800048610E
:101770000298006C20B9FFE70298806C38B1FFE74F
:1017800002980168086820F008000860FFE70298E6
:101790000168086820F001000860FFE7029800680F
:1017A0000068C007C8B1FFE700F0F0FC0099401ADC
:1017B000062811D3FFE702992020486502990320EB
:1017C00081F83500FFE70299002081F83400FFE737
:1017D00003208DF80F0015E0E0E70298C16D3F206F
:1017E0008840019988600299012081F83500FFE75F
:1017F0000299002081F83400FFE7FFE700208DF810
:101800000F00FFE79DF80F0004B080BD82B000908C
:10181000009890F83500022807D0FFE70099802053
:10182000486501208DF807000EE00099052081F839
:10183000350000980168086820F001000860FFE7A3
:1018400000208DF80700FFE79DF8070002B0704701
:1018500080B586B005900020039040F20000C2F2EF
:101860000000006848F2B511C1F64E31A0FB01102E
:10187000800A02900598806D01900198006804909C
:1018800004980599C96DC840000700281AD5FFE7DC
:101890000598006800684007002812D5FFE7059802
:1018A0000168086820F0040008600598C16D0820F0
:1018B0008840019988600599486D40F001004865AD
:1018C000FFE7FFE704980599C96DC840C007A0B1BC
:1018D000FFE7059800684069000600280CD5FFE77F
:1018E0000598C16D01208840019988600599486D6F
:1018F00040F002004865FFE7FFE704980599C96DCD
:10190000C8404007002814D5FFE705980068006824
:10191000800700280CD5FFE70598C16D042088409A
:10192000019988600599486D40F004004865FFE71B
:10193000FFE704980599C96DC840C006002847D53F
:10194000FFE7059800680068000700283FD5FFE71B
:101950000598C16D1020884001998860059800683D
:101960000068400300281AD5FFE705980068006862
:101970000003002809D4FFE70598006C20B1FFE7B9
:101980000598016C8847FFE708E00598806C20B156
:10199000FFE70598816C8847FFE7FFE716E00598A9
:1019A00000680068C005002807D4FFE705980168B3
:1019B000086820F008000860FFE70598006C20B177
:1019C000FFE70598016C8847FFE7FFE7FFE7FFE7C0
:1019D00004980599C96DC8408006002840F18D80A3
:1019E000FFE7059800680068C006002840F1848081
:1019F000FFE70598C16D202088400199886005980F
:101A000090F83500052834D1FFE70598016808688B
:101A100020F01600086005980168486920F08000F1
:101A200048610598006C20B9FFE70598806C38B1D3
:101A3000FFE705980168086820F008000860FFE7E4
:101A40000598C16D3F208840019988600599012063
:101A500081F83500FFE70599002081F83400FFE7A1
:101A60000598006D20B1FFE70598016D8847FFE7F5
:101A70007BE0059800680068400300281AD5FFE75E
:101A80000598006800680003002809D4FFE705985E
:101A9000406C20B1FFE70598416C8847FFE708E0FC
:101AA0000598C06B20B1FFE70598C16B8847FFE739
:101AB000FFE720E0059800680068C005002811D401
:101AC000FFE705980168086820F010000860059994
:101AD000012081F83500FFE70599002081F83400E6
:101AE000FFE7FFE70598C06B20B1FFE70598C16BE2
:101AF0008847FFE7FFE7FFE7FFE70598406DA0B3E2
:101B0000FFE70598406DC00730B3FFE70599052052
:101B100081F8350005980168086820F00100086028
:101B2000FFE70398013003900299884201D9FFE74B
:101B300007E0FFE7059800680068C0070028F0D1BB
:101B4000FFE70599012081F83500FFE7059900209E
:101B500081F83400FFE7FFE70598C06C20B1FFE78C
:101B60000598C16C8847FFE7FFE706B080BD00001D
:101B700080B586B004900020039000F007FB02902F
:101B8000049820B9FFE701208DF81700A3E004981E
:101B9000406A08B1FFE7FFE70499022081F83500A9
:101BA000FFE70499002081F83400FFE704980168FA
:101BB000086820F001000860FFE7049800680068EA
:101BC000C00790B1FFE700F0E1FA0299401A062839
:101BD0000AD3FFE70499202048650499032081F87F
:101BE00035008DF8170076E0E7E704980068006894
:101BF0000390039848F23F01CFF210010840039090
:101C0000049900914868D1F808C0CB680A6940EA95
:101C10000C00184310434A6910438A691043CA698B
:101C20001043096A01430398084303900498406AEB
:101C3000042808D1FFE70499C86A096B0143039897
:101C400008430390FFE70398049909680860049823
:101C5000006840690390039820F0070003900498FF
:101C6000416A0398084303900498406A04281AD1F3
:101C7000FFE70498816A0398084303900498C06AB8
:101C800080B1FFE70498FEF7E7FD50B1FFE7049944
:101C9000402048650499012081F835008DF817002F
:101CA00019E0FFE7FFE70398049909684861049881
:101CB000FEF7A6FD01900498C16D3F208840019970
:101CC0008860049900204865049A012182F8351043
:101CD0008DF81700FFE79DF8170006B080BD0000E3
:101CE00080B588B0069005910492039300208DF88A
:101CF0000B000698806D0190FFE7069890F834007D
:101D0000012804D1FFE702208DF81F0045E0069965
:101D1000012081F83400FFE7FFE7069890F83500CE
:101D200001282BD1FFE70699022081F8350006999A
:101D30000020486506980599049A039BFEF704FE67
:101D40000698C16D3F208840019988600698016817
:101D5000086840F0160008600698006C38B1FFE78C
:101D600006980168086840F008000860FFE70698D8
:101D70000168086840F00100086009E0FFE7069983
:101D8000002081F83400FFE702208DF80B00FFE708
:101D90009DF80B008DF81F00FFE79DF81F0008B0AD
:101DA00080BD00008EB00D900C9100200A9009902B
:101DB00008900B90FFE70B980F2800F2CC81FFE70B
:101DC0000B99012088400A900C9800680A990840F5
:101DD000099009980A99884240F0B881FFE70C9869
:101DE000406800F00300012807D0FFE70C98406826
:101DF00000F0030002282FD1FFE70D9880680890BB
:101E00000B984100032000FA01F1089888430890DC
:101E10000C98C0680B99490000FA01F10898084332
:101E2000089008980D9988600D98406808900B9963
:101E3000012000FA01F10898884308900C98406846
:101E4000C0F300100B9900FA01F1089808430890BC
:101E500008980D994860FFE70C98406800F003006F
:101E6000032818D0FFE70D98C06808900B98410030
:101E7000032000FA01F10898884308900C988068C4
:101E80000B99490000FA01F1089808430890089856
:101E90000D99C860FFE70C98406800F00300022825
:101EA00026D1FFE70D980B996FF0030202EA51016A
:101EB0000844006A08900B9800F0070081000F208A
:101EC00000FA01F10898884308900C9800690B9972
:101ED00001F00701890000FA01F108980843089011
:101EE00008980D990B9B02EA530211440862FFE720
:101EF0000D98006808900B984100032000FA01F14A
:101F00000898884308900C98406800F003000B99EB
:101F1000490000FA01F108980843089008980D99C3
:101F200008600C9880798007002800F00E81FFE798
:101F3000FFE70020079043F64400C4F20200016866
:101F400041F480410160006800F4804007900798E8
:101F5000FFE70B9820F0030043F60801C4F20101EB
:101F6000405808900B9800F0030081000F2000FA01
:101F700001F10898884308900D980021C4F20201ED
:101F8000884203D1FFE7002006905EE00D9840F202
:101F90000041C4F20201884203D1FFE7012005900D
:101FA00050E00D9840F60001C4F20201884203D1CE
:101FB000FFE70220049042E00D9840F60041C4F291
:101FC0000201884203D1FFE70320039034E00D981B
:101FD00041F20001C4F20201884203D1FFE704206C
:101FE000029026E00D9841F20041C4F202018842BD
:101FF00003D1FFE70520019018E00D9841F600019C
:10200000C4F20201884203D1FFE7062000900AE0F3
:102010000D9941F60042C4F202020820914208BF25
:1020200007200090FFE700980190FFE701980290D9
:10203000FFE702980390FFE703980490FFE70498F6
:102040000590FFE705980690FFE70698C0B20B9948
:1020500001F00301890000FA01F108980843089093
:1020600008980B9921F0030143F60802C4F201021B
:10207000885043F60840C4F20100006808900999AE
:102080000898884308900C988079C006002805D5E8
:10209000FFE70999089808430890FFE7089843F676
:1020A0000841C4F20101086043F60C40C4F201008B
:1020B0000068089009990898884308900C988079DE
:1020C0008006002805D5FFE709990898084308907D
:1020D000FFE7089843F60C41C4F20101086043F69B
:1020E0000440C4F2010000680890099908988843E8
:1020F00008900C9880798007002805D5FFE709999A
:10210000089808430890FFE7089843F60441C4F292
:102110000101086043F60040C4F201000068089025
:1021200009990898884308900C988079C00728B1CD
:10213000FFE70999089808430890FFE7089843F6D5
:102140000041C4F201010860FFE7FFE7FFE70B98D9
:1021500001300B902FE60EB07047000082B0019066
:10216000ADF802108DF801209DF8010028B1FFE7BD
:10217000BDF802000199886105E0BDF80200000485
:1021800001998861FFE702B07047000040F25C40AF
:10219000C2F200000068704740F21000C2F2000076
:1021A000027840F25C41C2F2000108681044086005
:1021B0007047000080B543F60041C4F20201086890
:1021C00040F400700860086840F4806008600868A7
:1021D00040F480700860032000F08AF80F2000F0BF
:1021E00005F800F03BF8002080BD000080B582B00B
:1021F000009040F20000C2F20000006840F21001BE
:10220000C2F200010A784FF47A71B1FBF2F1B0FB2F
:10221000F1F001F011FC20B1FFE701208DF807007B
:1022200018E000980F280DD8FFE700994FF0FF3015
:10223000002200F043F8009840F21401C2F20001BD
:10224000086003E001208DF8070003E000208DF80E
:102250000700FFE79DF8070002B080BD82B0FFE7EE
:102260000020019043F64400C4F20200016841F4EA
:1022700080410160006800F4804001900198FFE710
:10228000FFE70020009043F64000C4F2020001681E
:1022900041F080510160006800F08050009000988B
:1022A000FFE702B07047000080B582B08DF80700EC
:1022B0009DF9070003F024FE02B080BD80B586B012
:1022C0008DF81700049103920020029003F030FE75
:1022D00002909DF91700019002980499039A02F068
:1022E00003FD0146019803F02BFE06B080BD0000FF
:1022F00080B582B00190019803F044FE02B080BD29
:1023000080B584B002900191029820B9FFE70120C6
:102310008DF80F0021E1019843F60041C4F202015B
:10232000096801F00701884212D9FFE7019943F6D5
:102330000040C4F202000170006800F0070001993B
:10234000884204D0FFE701208DF80F0005E1FFE788
:1023500002980078800700282AD5FFE702980078C5
:102360004007002809D5FFE743F60801C4F202013F
:10237000086840F4E0500860FFE702980078000722
:10238000002809D5FFE743F60801C4F202010868F6
:1023900040F460400860FFE743F60801C4F2020120
:1023A000086820F0F000029A926810430860FFE786
:1023B00002980078C00700286ED0FFE702984068B6
:1023C000012811D1FFE743F60000C4F202000068C3
:1023D00000F400310020B0EB514F04D1FFE70120A1
:1023E0008DF80F00B9E02CE002984068022805D073
:1023F000FFE702984068032811D1FFE743F6000089
:10240000C4F20200006800F000710020B0EB516FD0
:1024100004D1FFE701208DF80F009EE010E043F6A5
:102420000000C4F20200006800F002010020B0EBDE
:10243000510F04D1FFE701208DF80F008DE0FFE779
:10244000FFE743F60801C4F20201086820F0030028
:10245000029A526810430860FFF798FE0090FFE769
:1024600043F60800C4F20200006800F00C00029974
:102470004968B0EB810F0ED0FFE7FFF787FE0099A8
:10248000401A41F28931884204D3FFE703208DF8D6
:102490000F0062E0E4E7FFE7019843F60041C4F271
:1024A0000201096801F00701884212D2FFE7019991
:1024B00043F60040C4F202000170006800F007001B
:1024C0000199884204D0FFE701208DF80F0044E015
:1024D000FFE702980078400700280CD5FFE743F695
:1024E0000801C4F20201086820F4E050029AD268A0
:1024F00010430860FFE702980078000700280DD518
:10250000FFE743F60801C4F20201086820F46040C6
:10251000029A126940EAC2000860FFE700F04CF836
:1025200043F60801C4F202010968C9B20A0949F672
:102530002831C0F60001895CC84040F20001C2F2B7
:102540000001086040F21400C2F200000068FFF7CA
:102550004DFE00208DF80F00FFE79DF80F0004B03E
:1025600080BD000040F20000C2F200000068704729
:1025700080B5FFF7F7FF43F60801C4F202010968CE
:10258000C1F3822249F63831C0F60001895CC840A7
:1025900080BD000080B5FFF7E5FF43F60801C4F2F7
:1025A0000201096889B24A0B49F63831C0F60001C8
:1025B000895CC84080BD000080B586B000200590D1
:1025C00004900390029043F60800C4F202000068F1
:1025D00000F00C000146019140B1FFE7019804288A
:1025E0000AD0FFE7019808280CD04FE042F20040E3
:1025F000C0F2F40002904FE041F60030C0F2B700A4
:10260000029049E043F60400C4F20200016801F0C0
:102610003F01059100684002002813D5FFE743F60B
:102620000400C4F202000068C0F3881041F60031D3
:10263000C0F2B701A0FB0101059A0023FDF714FECB
:10264000049012E043F60400C4F202000068C0F3F4
:10265000881042F20041C0F2F401A0FB0101059A8A
:102660000023FDF701FE0490FFE743F60400C4F2E7
:102670000200006800F44031022000EBD1300390EA
:1026800004980399B0FBF1F0029005E042F200409B
:10269000C0F2F4000290FFE7029806B080BD00008F
:1026A00080B586B00490049820B9FFE701208DF82A
:1026B000170050E304980078C007002800F0A580B8
:1026C000FFE743F60800C4F20200006800F00C00C7
:1026D000042813D0FFE743F60800C4F202000068A4
:1026E00000F00C0008281ED1FFE743F60400C4F2F6
:1026F000020000684002002815D5FFE743F60000FD
:10270000C4F20200006800F400310020B0EB514F29
:1027100008D0FFE70498406820B9FFE701208DF852
:10272000170018E370E0FFE704984068B0F5803FB9
:1027300009D1FFE743F60001C4F20201086840F442
:102740008030086020E004984068B0F5A02F0DD1DB
:10275000FFE743F60001C4F20201086840F480205C
:102760000860086840F4803008600CE043F600011F
:10277000C4F20201086820F480300860086820F480
:1027800080200860FFE7FFE7FFE704984068E8B1B2
:10279000FFE7FFF7FBFC0390FFE743F60000C4F2FE
:1027A0000200006800F400310020B0EB514F0CD162
:1027B000FFE7FFF7EBFC0399401A652804D3FFE716
:1027C00003208DF81700C6E2E7E71CE0FFF7DEFC08
:1027D0000390FFE743F60000C4F20200006800F433
:1027E00000310020B0EB514F0CD0FFE7FFF7CEFCDB
:1027F0000399401A652804D3FFE703208DF81700DA
:10280000A9E2E7E7FFE7FFE7FFE704980078800722
:10281000002840F19680FFE743F60800C4F202006A
:10282000006810F00C0F13D0FFE743F60800C4F265
:102830000200006800F00C0008282CD1FFE743F6E6
:102840000400C4F2020000684002002823D4FFE71D
:1028500043F60000C4F20200006800F0020100200C
:10286000B0EB510F09D0FFE70498C068012804D0ED
:10287000FFE701208DF817006DE243F60001C4F276
:102880000201086820F0F800049A126940EAC200C8
:102890000860FFE754E00498C06870B3FFE70021C8
:1028A000C4F2472101200860FFF770FC0390FFE7A6
:1028B00043F60000C4F20200006800F002010020AC
:1028C000B0EB510F0CD1FFE7FFF760FC0399401A02
:1028D000032804D3FFE703208DF817003BE2E7E766
:1028E00043F60001C4F20201086820F0F800049ADF
:1028F000126940EAC200086021E00021C4F24721C9
:1029000000200860FFF742FC0390FFE743F6000059
:10291000C4F20200006800F002010020B0EB510F89
:102920000CD0FFE7FFF732FC0399401A032804D3C9
:10293000FFE703208DF817000DE2E7E7FFE7FFE769
:10294000FFE704980078000700284BD5FFE70498BC
:10295000406918B3FFE740F68061C4F247210120C7
:102960000860FFF713FC0390FFE743F67400C4F21E
:102970000200006800F002010020B0EB510F0CD102
:10298000FFE7FFF703FC0399401A032804D3FFE78E
:1029900003208DF81700DEE1E7E722E040F68061D2
:1029A000C4F2472100200860FFF7F0FB0390FFE727
:1029B00043F67400C4F20200006800F00201002037
:1029C000B0EB510F0CD0FFE7FFF7E0FB0399401A83
:1029D000032804D3FFE703208DF81700BBE1E7E7E6
:1029E000FFE7FFE7049800784007002840F1CE8019
:1029F000FFE700208DF8070043F64000C4F2020014
:102A00000068C000002815D4FFE7FFE70020009011
:102A100043F64000C4F20200016841F080510160B9
:102A2000006800F0805000900098FFE701208DF8CA
:102A30000700FFE747F20000C4F200000068C0058D
:102A4000002822D4FFE747F20001C4F20001086821
:102A500040F480700860FFF799FB0390FFE747F2AE
:102A60000000C4F200000068C00500280CD4FFE795
:102A7000FFF78CFB0399401A032804D3FFE70320D8
:102A80008DF8170067E1EAE7FFE7FFE70498806841
:102A9000012809D1FFE743F67001C4F2020108687A
:102AA00040F0010008601FE00498806805280DD1FF
:102AB000FFE743F67001C4F20201086840F0040029
:102AC0000860086840F0010008600CE043F67001FF
:102AD000C4F20201086820F001000860086820F0D4
:102AE00004000860FFE7FFE7FFE704988068F8B19B
:102AF000FFE7FFF74BFB0390FFE743F67000C4F2DC
:102B00000200006800F002010020B0EB510F0ED16E
:102B1000FFE7FFF73BFB0399401A41F289318842F6
:102B200004D3FFE703208DF8170014E1E5E71EE06A
:102B3000FFF72CFB0390FFE743F67000C4F202009E
:102B4000006800F002010020B0EB510F0ED0FFE74B
:102B5000FFF71CFB0399401A41F28931884204D3E4
:102B6000FFE703208DF81700F5E0E5E7FFE79DF8A4
:102B70000700012809D1FFE743F64001C4F2020132
:102B8000086820F080500860FFE7FFE7049880693C
:102B9000002800F0DC80FFE743F60800C4F20200E2
:102BA000006800F00C00082800F08580FFE704981A
:102BB000806902285CD1FFE76021C4F24721002030
:102BC0000860FFF7E3FA0390FFE743F60000C4F262
:102BD0000200006800F000710020B0EB516F0CD0D3
:102BE000FFE7FFF7D3FA0399401A032804D3FFE75E
:102BF00003208DF81700AEE0E7E70499C869D1F823
:102C000020C04B6A8A6A40EA0C0040EA8310D20373
:102C10004FF6FF739A43A2F580321043C96A40EA27
:102C2000016043F60401C4F2020108606021C4F2AD
:102C3000472101200860FFF7A9FA0390FFE743F658
:102C40000000C4F20200006800F000710020B0EB48
:102C5000516F0CD1FFE7FFF799FA0399401A032847
:102C600004D3FFE703208DF8170074E0E7E721E0C5
:102C70006021C4F2472100200860FFF787FA039023
:102C8000FFE743F60000C4F20200006800F00071A4
:102C90000020B0EB516F0CD0FFE7FFF777FA0399F4
:102CA000401A032804D3FFE703208DF8170052E0F1
:102CB000E7E7FFE74AE004988069012804D1FFE7CD
:102CC00001208DF8170046E043F60400C4F202002C
:102CD0000068029004988069012831D0FFE70298CB
:102CE00000F480000499C969884229D1FFE702985D
:102CF00000F03F000499096A884221D1FFE7029859
:102D000047F6C07108400499496AB0EB811F17D19A
:102D1000FFE7029800F440300499896AC9034FF62E
:102D2000FF729143A1F58031884209D1FFE70298F3
:102D300000F070600499C96AB0EB016F04D0FFE73E
:102D400001208DF8170006E0FFE7FFE7FFE700200E
:102D50008DF81700FFE79DF8170006B080BD000052
:102D600081B0009001B0704781B00090009890F859
:102D7000510001B07047000080B588B007900798F7
:102D800000684068069007980068806805909DF884
:102D9000140000F040010020B0EB911F11D1FFE7BB
:102DA0000598C00768B1FFE79DF8180000F04001E2
:102DB0000020B0EB911F04D0FFE70798016C884713
:102DC000F0E09DF8140000F002010020B0EB510F7C
:102DD0000BD0FFE79DF818100020B0EBD11F04D0F6
:102DE000FFE70798416C8847DCE09DF8140000F08D
:102DF00020010020B0EB511F10D1FFE79DF8140017
:102E000000F040010020B0EB911F07D1FFE79DF8D3
:102E10001500C007002800F0C580FFE79DF81800E6
:102E200000F020010020B0EB511F00F0BB80FFE755
:102E30009DF8140000F040010020B0EB911F28D055
:102E4000FFE7079890F85100032813D0FFE7079990
:102E5000486D40F004004865FFE7002004900798A3
:102E60000068C0680490079800688068049004981F
:102E7000FFE70DE0FFE70020039007980068C068B7
:102E8000039007980068806803900398FFE789E043
:102E9000FFE79DF8140000F020010020B0EB511F67
:102EA00015D0FFE70799486D40F001004865FFE73E
:102EB00000200290079800688068029007980168D7
:102EC000086820F0400008600298FFE7FFE79DF8DF
:102ED0001500C00778B1FFE70799486D40F008007A
:102EE0004865FFE70020019007980068806801901E
:102EF0000198FFE7FFE70798406D002851D0FFE7F2
:102F000007980168486820F0E000486007990120B0
:102F100081F85100069800F00200022805D0FFE772
:102F20009DF81800C007B8B3FFE707980168486824
:102F300020F0030048600798C06CA0B1FFE7079835
:102F4000C16C45F2CD00C0F6000008650798C06C62
:102F5000FEF75CFC30B1FFE70799486D40F0400098
:102F60004865FFE7FFE70798806CA0B1FFE7079887
:102F7000816C45F2CD00C0F6000008650798806CB2
:102F8000FEF744FC30B1FFE70799486D40F0400080
:102F90004865FFE7FFE703E00798FFF7E1FEFFE77B
:102FA000FFE7FFE708B080BD80B584B002900298CB
:102FB00020B9FFE701208DF80F0071E00298406A08
:102FC00060B9FFE702984068B0F5827F01D1FFE762
:102FD00003E002990020C861FFE705E002990020A4
:102FE000086102994861FFE702990020886202980F
:102FF00090F8510040B9FFE70299002081F8500095
:10300000029800F051F8FFE70299022081F8510080
:1030100002980168086820F040000860029A019256
:1030200011685068D2F808C0D36800F482700CF4BC
:10303000044C604403F400631844136903F0020372
:103040001844536903F001031844936903F40073AF
:103050001844D36903F038031844136A03F080035B
:103060001843926A02F4005210430860029A508B8F
:1030700000F004001168526A02F010021044486027
:1030800002980168C86920F40060C86102990020B4
:103090004865029A012182F851108DF80F00FFE770
:1030A0009DF80F0004B080BD80B590B00F90002057
:1030B0000E900D900C900B900A900F98006843F2C0
:1030C0000001C4F20101884267D1FFE7FFE7002059
:1030D000099043F64400C4F20200016841F48051B3
:1030E0000160006800F4805009900998FFE7FFE74D
:1030F0000020089043F63000C4F20200016841F05D
:1031000002010160006800F0020008900898FFE7E3
:10311000FFE70020079043F63000C4F20200016888
:1031200041F001010160006800F00100079007987C
:10313000FFE718200A90022001900B9000200590D4
:103140000C90032002900D90052003900E9040F209
:103150000040C4F202000AA90491FEF723FEDDF844
:1031600004C0029A03980499059B4FF0800ECDF895
:1031700028E0CDF82CC00C930D920E900020C4F2E4
:103180000200FEF70FFE059A232006901146FFF776
:1031900095F80698FFF788F8FFE710B080BD0000AB
:1031A00080B588B006900591ADF81220039306987B
:1031B00090F85100012804D0FFE702208DF81F008D
:1031C00011E106984068B0F5827F16D1FFE70698B6
:1031D000806890B9FFE70699042081F851000698AD
:1031E000059ABDF812300399EC46CCF80010114650
:1031F00000F050FA8DF81F00F5E0FEF7C7FF0290CF
:10320000059820B1FFE7BDF8120020B9FFE70120C3
:103210008DF81F00E7E0FFE7069890F850000128BE
:1032200004D1FFE702208DF81F00DCE006990120A1
:1032300081F85000FFE7FFE70699042081F851006C
:103240000699002048650599069A9163BDF8121009
:10325000069A9187BDF81210069AD18706990863DD
:10326000069988860699C88606990864069948646E
:1032700006988068B0F5004F0DD1FFE70698016809
:10328000086820F04000086006980168086820F48B
:1032900080400860FFE706980068006800F0400082
:1032A000402807D0FFE706980168086840F0400012
:1032B0000860FFE70698C068D0BBFFE7FFE7069805
:1032C000C08FA0B3FFE7069800688068C00778B198
:1032D000FFE706980068007B0699896B08700699DD
:1032E000886B013088630699C88F0138C8871DE054
:1032F000FEF74CFF0299401A0399884204D3FFE776
:103300000398013018B9FFE7039870B9FFE70699F1
:10331000012081F85100FFE70699002081F8500054
:10332000FFE703208DF81F005DE0FFE7C7E739E006
:10333000FFE70698C08FA0B3FFE706980068806893
:10334000C00778B1FFE706980068C0680699896BE6
:1033500008800699886B023088630699C88F013807
:10336000C8871DE0FEF712FF0299401A03998842B0
:1033700004D3FFE70398013018B9FFE7039870B949
:10338000FFE70699012081F85100FFE70699002028
:1033900081F85000FFE703208DF81F0023E0FFE7CE
:1033A000C7E7FFE706980399029A01F09FFE20B154
:1033B000FFE7069920204865FFE70699012081F87C
:1033C0005100FFE70699002081F85000FFE70698BA
:1033D000406D20B1FFE701208DF81F0003E00020C1
:1033E0008DF81F00FFE79DF81F0008B080BD0000AA
:1033F00080B588B006900591ADF812200393FEF7D2
:10340000C5FE0290BDF81200ADF80600069890F8CF
:103410005100012804D0FFE702208DF81F0034E19D
:10342000059820B1FFE7BDF8120020B9FFE70120A1
:103430008DF81F0029E1FFE7069890F85000012859
:1034400004D1FFE702208DF81F001EE1069901203C
:1034500081F85000FFE7FFE70699032081F851004B
:103460000699002048650599069A1163BDF8121067
:10347000069A9186BDF81210069AD186069988633D
:10348000069988870699C88706994864069908644A
:1034900006988068B0F5004F0DD1FFE706980168E7
:1034A000086820F04000086006980168086840F449
:1034B00080400860FFE706980068006800F0400060
:1034C000402807D0FFE706980168086840F04000F0
:1034D0000860FFE70698C068B0F5006F51D1FFE7BC
:1034E0000698406828B1FFE7BDF8060001280ED114
:1034F000FFE706980168006B0088C8600699086BB2
:10350000023008630699C88E0138C886FFE7FFE7D6
:103510000698C08EA0B3FFE7069800688068800711
:1035200000280ED5FFE706980168006B0088C86088
:103530000699086B023008630699C88E0138C88660
:103540001DE0FEF723FE0299401A0399884204D336
:10355000FFE70398013018B9FFE7039870B9FFE758
:103560000699012081F85100FFE70699002081F8B3
:103570005000FFE703208DF81F0086E0FFE7C7E754
:1035800050E00698406828B1FFE7BDF80600012822
:103590000ED1FFE706980168006B00780873069962
:1035A000086B013008630699C88E0138C886FFE7AA
:1035B000FFE70698C08EA0B3FFE706980068806812
:1035C000800700280ED5FFE706980168006B007899
:1035D00008730699086B013008630699C88E013894
:1035E000C8861DE0FEF7D2FD0299401A0399884271
:1035F00004D3FFE70398013018B9FFE7039870B9C7
:10360000FFE70699012081F85100FFE706990020A5
:1036100081F85000FFE703208DF81F0035E0FFE739
:10362000C7E7FFE706980399029A01F0D1FD20B1A0
:10363000FFE7069920204865FFE70698806870B983
:10364000FFE7FFE70020009006980068C068009040
:1036500006980068806800900098FFE7FFE70699E9
:10366000012081F85100FFE70699002081F8500001
:10367000FFE70698406D20B1FFE701208DF81F009D
:1036800003E000208DF81F00FFE79DF81F0008B041
:1036900080BD000080B58CB0DDF838C00A9009917B
:1036A0000892ADF81E3001200390FEF76FFD0490E4
:1036B0000A9890F851008DF817000A984068069013
:1036C000BDF81E00ADF81C009DF81700012812D0AF
:1036D000FFE70698B0F5827F09D1FFE70A98806876
:1036E00028B9FFE79DF81700042804D0FFE702205F
:1036F0008DF82F009BE1099838B1FFE7089820B1B9
:10370000FFE7BDF81E0020B9FFE701208DF82F006C
:103710008DE1FFE70A9890F85000012804D1FFE7F7
:1037200002208DF82F0082E10A99012081F85000D3
:10373000FFE7FFE70A9890F85100042805D0FFE75B
:103740000A99052081F85100FFE70A990020486591
:1037500008990A9A9163BDF81E100A9AD187BDF89C
:103760001E100A9A918709990A9A1163BDF81E10D2
:103770000A9AD186BDF81E100A9A91860A990864A1
:103780000A9948640A980068006800F040004028E0
:1037900007D0FFE70A980168086840F04000086019
:1037A000FFE70A98C068B0F5006F40F08180FFE73E
:1037B0000A98406828B1FFE7BDF81C0001280ED127
:1037C000FFE70A980168006B0088C8600A99086BD7
:1037D000023008630A99C88E0138C886FFE7FFE700
:1037E0000A98C18E0120019039B9FFE70A98C08F6D
:1037F000002818BF01200190FFE70198C0070028AA
:1038000055D0FFE70A98006880688007002818D51F
:10381000FFE70A98C08EA0B1FFE70398012810D1F6
:10382000FFE70A980168006B0088C8600A99086B76
:10383000023008630A99C88E0138C88600200390B8
:10384000FFE70A9800688068C007A8B1FFE70A98F8
:10385000C08F88B1FFE70A980068C0680A99896B31
:1038600008800A99886B023088630A99C88F0138EA
:10387000C88701200390FFE7FEF788FC0499401AEF
:103880000E99884212D3FFE70E98013070B1FFE71E
:103890000A99012081F85100FFE70A99002081F878
:1038A0005000FFE703208DF82F00C0E098E782E08A
:1038B0000A98406828B1FFE7BDF81C0001280ED126
:1038C000FFE70A980168006B007808730A99086B93
:1038D000013008630A99C88E0138C886FFE7FFE700
:1038E0000A98C18E0120009039B9FFE70A98C08F6D
:1038F000002818BF01200090FFE70098C0070028AB
:1039000058D0FFE70A98006880688007002818D51B
:10391000FFE70A98C08EA0B1FFE70398012810D1F5
:10392000FFE70A980168006B007808730A99086B32
:10393000013008630A99C88E0138C88600200390B8
:10394000FFE70A9800688068C007A8B1FFE70A98F7
:10395000C08F88B1FFE70A980068C0680A99896B30
:1039600008700A99886B013088630A99C88F0138FA
:10397000C88701200390FFE7FEF708FC0499401A6E
:103980000E99884204D3FFE70E98013018B9FFE77B
:103990000E9870B9FFE70A99012081F85100FFE7FE
:1039A0000A99002081F85000FFE703208DF82F00CE
:1039B0003DE095E7FFE70A980E99049A01F008FCAC
:1039C00068B1FFE70A9920204865FFE70A990020BF
:1039D00081F85000FFE701208DF82F0027E00A98BA
:1039E000806870B9FFE7FFE7002002900A9800683E
:1039F000C06802900A980068806802900298FFE709
:103A0000FFE70A99012081F85100FFE70A99002099
:103A100081F85000FFE70A98406D20B1FFE70120D0
:103A20008DF82F0003E000208DF82F00FFE79DF8B0
:103A30002F000CB080BD000080B582B001900198CD
:103A400001F0C4FC02B080BD81B0009001B07047AD
:103A500081B0009001B0704785B003900291FFE7FC
:103A6000039890F83C00012804D1FFE702208DF86C
:103A700013007EE00399012081F83C00FFE7FFE797
:103A80000399022081F83D00039800684068019086
:103A90000398006880680090019820F07000019001
:103AA00002980168019808430190019803990968F8
:103AB0004860039800680021C4F2010188423CD0AC
:103AC000FFE703980068B0F1804F36D0FFE7039816
:103AD000006840F20041C4F2000188422DD0FFE7A7
:103AE0000398006840F60001C4F20001884224D027
:103AF000FFE70398006840F60041C4F200018842E5
:103B00001BD0FFE70398006840F20041C4F20101B6
:103B1000884212D0FFE70398006844F20001C4F223
:103B20000101884209D0FFE70398006841F60001CF
:103B3000C4F2000188420ED1FFE7009820F0800017
:103B400000900298416800980843009000980399FB
:103B500009688860FFE70399012081F83D00FFE7CD
:103B60000399002081F83C00FFE700208DF8130046
:103B7000FFE79DF8130005B07047000080B582B0E4
:103B80000090009820B9FFE701208DF807003FE082
:103B9000009890F83D0040B9FFE70099002081F8B7
:103BA0003C00009800F038F8FFE70099022081F807
:103BB0003D00009951F8040B01F0BEFC0099012072
:103BC00081F84600FFE70099012081F83E00009946
:103BD00081F83F00009981F84000009981F8410088
:103BE000FFE7FFE70099012081F84200009981F882
:103BF0004300009981F84400009981F84500FFE7EF
:103C00000099012081F83D0000208DF80700FFE7B2
:103C10009DF8070002B080BD80B588B00790079876
:103C200000680021C4F20101884237D1FFE7FFE7B5
:103C30000020069043F64400C4F20200016841F0FF
:103C400001010160006800F0010006900698FFE79E
:103C500018200190002204921146FEF72FFB0198D4
:103C6000FEF722FB049A192002901146FEF726FB6C
:103C70000298FEF719FB049A1A2003901146FEF7EA
:103C80001DFB0398FEF710FB049A1B2005901146BC
:103C9000FEF714FB0598FEF707FBFFE708B080BDB1
:103CA00083B00190019890F83D00012804D0FFE70F
:103CB00001208DF80B006AE00199022081F83D0097
:103CC00001980168C86840F00100C8600198006868
:103CD0000021C4F2010188423CD0FFE7019800684E
:103CE000B0F1804F36D0FFE70198006840F2004104
:103CF000C4F2000188422DD0FFE70198006840F629
:103D00000001C4F20001884224D0FFE70198006856
:103D100040F60041C4F2000188421BD0FFE7019841
:103D2000006840F20041C4F20101884212D0FFE76E
:103D30000198006844F20001C4F20101884209D0F0
:103D4000FFE70198006841F60001C4F200018842D3
:103D500012D1FFE701980068806800F0070000902A
:103D60000098062807D0FFE701980168086840F02E
:103D700001000860FFE706E001980168086840F06C
:103D800001000860FFE700208DF80B00FFE79DF8B9
:103D90000B0003B07047000080B586B0049003911B
:103DA00000208DF80B00FFE7049890F83C000128F4
:103DB00004D1FFE702208DF81700ABE00499012041
:103DC00081F83C00FFE7FFE70499022081F83D00FD
:103DD0000498006880680190019820F077000190B5
:103DE000019820F47F400190019804990968886047
:103DF000039800680090002872D0FFE70098102810
:103E00006ED0FFE7009820286AD0FFE7009830289E
:103E100066D0FFE70098402855D0FFE7009850286B
:103E200037D0FFE70098602840D0FFE7009870285F
:103E30000BD0FFE70098B0F5805F05D0FFE7009852
:103E4000B0F5005F16D052E055E004980068039B7F
:103E50005A689968DB6801F047FC0498006880683C
:103E60000190019840F07700019001980499096849
:103E7000886040E004980068039B5A689968DB6892
:103E800001F032FC04980168886840F48040886042
:103E900031E004980068039A5168D26801F054FC3C
:103EA00004980068502101F039FC24E0049800686F
:103EB000039A5168D26801F06FFC04980068602191
:103EC00001F02CFC17E004980068039A5168D2684E
:103ED00001F03AFC04980068402101F01FFC0AE060
:103EE000049800680399096801F018FC03E00120B8
:103EF0008DF80B00FFE70499012081F83D00FFE7F2
:103F00000499002081F83C00FFE79DF80B008DF834
:103F10001700FFE79DF8170006B080BD81B0009044
:103F200001B0704780B584B0039003980068C06802
:103F3000029003980068006901909DF804008007D2
:103F4000002824D5FFE79DF80800800700281DD52C
:103F5000FFE7039801686FF00200086103990120F0
:103F60000877039800688069800720B1FFE703980D
:103F7000FFF7D4FF06E0039800F0E2F8039800F0A2
:103F8000E3F8FFE7039900200877FFE7FFE79DF8D4
:103F900004004007002825D5FFE79DF808004007EA
:103FA00000281ED5FFE7039801686FF00400086140
:103FB00003990220087703980068806910F4407F15
:103FC00004D0FFE70398FFF7A9FF06E0039800F08D
:103FD000B7F8039800F0B8F8FFE7039900200877D6
:103FE000FFE7FFE79DF804000007002824D5FFE75E
:103FF0009DF80800000700281DD5FFE70398016819
:104000006FF008000861039904200877039800689E
:10401000C069800720B1FFE70398FFF77FFF06E044
:10402000039800F08DF8039800F08EF8FFE70399ED
:1040300000200877FFE7FFE79DF80400C00600288E
:1040400025D5FFE79DF80800C00600281ED5FFE72C
:10405000039801686FF01000086103990820087741
:1040600003980068C06910F4407F04D0FFE703980C
:10407000FFF754FF06E0039800F062F8039800F0A1
:1040800063F8FFE7039900200877FFE7FFE79DF853
:104090000400C00778B1FFE79DF80800C00748B1E9
:1040A000FFE7039801686FF001000861039800F0D2
:1040B0004FF8FFE7FFE79DF804000006002810D541
:1040C000FFE79DF808000006002809D5FFE70398E0
:1040D00001686FF0800008610398FFF7B5FCFFE707
:1040E000FFE79DF804004006002810D5FFE79DF883
:1040F00008004006002809D5FFE7039801686FF023
:1041000040000861039800F033F8FFE7FFE79DF8EF
:1041100004008006002810D5FFE79DF808008006FF
:10412000002809D5FFE7039801686FF020000861B7
:104130000398FFF78DFCFFE7FFE704B080BD0000A8
:1041400081B0009001B0704781B0009001B070471D
:1041500080B582B00190019800680021C4F201018D
:10416000884203D1FFE702F0A7FBFFE702B080BD62
:1041700081B0009001B0704780B586B00490039183
:10418000ADF80A20049890F8420020284DD1FFE7AE
:10419000039820B1FFE7BDF80A0020B9FFE701202E
:1041A0008DF8170045E00499012008630499002068
:1041B000486304980399BDF80A2001F0C7FD8DF803
:1041C00009009DF8090058BBFFE70498006B01281F
:1041D00021D1FFE7FFE70020019004980068006804
:1041E000019004980068406801900198FFE7FFE79C
:1041F000FFE70498006850E8030F40F010000090BB
:10420000FFE700990498026842E803100028F0D103
:10421000FFE7FFE703E001208DF80900FFE7FFE774
:104220009DF809008DF8170003E002208DF81700B3
:10423000FFE79DF8170006B080BD000080B586B08E
:104240000590ADF812100598006844F60001C4F21C
:10425000000188421AD1FFE740F2D400C2F2000008
:10426000019040F2A401C2F20001029112220392D5
:10427000FCF772F8019800F039FE0299039A40F2B7
:10428000D020C2F2000000F057FBFFE706B080BD6F
:1042900081B0009001B0704780B592B01190119834
:1042A00000680068109011980068C0680F9011981D
:1042B000006840690E9000200D900C90109800F05E
:1042C0000F000D900D9888B9FFE79DF8400080061B
:1042D00000280AD5FFE79DF83C008006002804D599
:1042E000FFE7119801F0DEFBEAE1FFE70D980028F7
:1042F00000F0C280FFE79DF83800C00738B9FFE73B
:10430000BDF83C0010F4907F00F0B680FFE79DF808
:104310004000C00758B1FFE79DF83D00C00730B12D
:10432000FFE71199486C40F001004864FFE79DF8F1
:104330004000400700280BD5FFE79DF83800C00774
:1043400030B1FFE71199486C40F002004864FFE784
:104350009DF84000800700280BD5FFE79DF8380046
:10436000C00730B1FFE71199486C40F00400486481
:10437000FFE79DF840000007002811D5FFE79DF8F2
:104380003C008006002805D4FFE79DF83800C007F0
:1043900030B1FFE71199486C40F008004864FFE72E
:1043A0001198406C002866D0FFE79DF84000800619
:1043B00000280AD5FFE79DF83C008006002804D5B8
:1043C000FFE7119801F06EFBFFE711980068406964
:1043D000C0F380100C901198406C0007002804D4A2
:1043E000FFE70C9800283ED0FFE7119801F0E0FAB3
:1043F000119800684069400600282FD5FFE7FFE7C5
:10440000FFE71198006850E8050F20F040000B907E
:10441000FFE70B991198026842E805100028F0D1D7
:10442000FFE7FFE71198C06B98B1FFE71198C16BE8
:1044300045F2ED70C0F6000008651198C06BFDF7FD
:10444000E5F928B1FFE71198C06B016D8847FFE7D8
:1044500003E01198FFF71CFFFFE703E01198FFF757
:1044600017FFFFE706E01198FFF712FF11990020F0
:104470004864FFE7FFE723E11198006B012840F053
:10448000FF80FFE79DF84000C006002840F1F8805B
:10449000FFE79DF83C00C006002840F1F180FFE7EF
:1044A000FFE700200A901198006800680A901198B0
:1044B000006840680A900A98FFE711980068406910
:1044C0004006002840F18280FFE71198C06B006829
:1044D0004068ADF82600BDF82600002875D0FFE73B
:1044E000BDF826001199898D88426EDAFFE7BDF884
:1044F00026001199C8851198C06BC069B0F5807FFE
:1045000058D0FFE7FFE7FFE71198006850E8030F76
:1045100020F480700890FFE708991198026842E83B
:1045200003100028F0D1FFE7FFE7FFE7FFE711984E
:10453000006850E8050F20F001000790FFE7079999
:104540001198026842E805100028F0D1FFE7FFE764
:10455000FFE7FFE71198006850E8050F20F04000E2
:104560000690FFE706991198026842E805100028B6
:10457000F0D1FFE7FFE71199202081F8420011995F
:1045800000200863FFE7FFE71198006850E8030F79
:1045900020F010000590FFE705991198026842E8A5
:1045A00003100028F0D1FFE7FFE71198C06BFDF77B
:1045B000B7F8FFE71199022048631198818DC28DE9
:1045C000891A89B2FFF73AFEFFE779E01199888DE1
:1045D000C98D401AADF812001198C08D00284ED038
:1045E000FFE7BDF81200002849D0FFE7FFE7FFE72B
:1045F0001198006850E8030F20F490700390FFE7D3
:1046000003991198026842E803100028F0D1FFE7EF
:10461000FFE7FFE7FFE71198006850E8050F20F07B
:1046200001000290FFE702991198026842E8051024
:104630000028F0D1FFE7FFE71199202081F8420020
:10464000119900200863FFE7FFE71198006850E820
:10465000030F20F010000190FFE701991198026804
:1046600042E803100028F0D1FFE7FFE7119902208C
:1046700048631198BDF81210FFF7E0FDFFE71FE057
:104680009DF84000000600280AD5FFE79DF83C0091
:104690000006002804D5FFE7119801F0DDFB0FE0CC
:1046A0009DF84000400600280AD5FFE79DF83C0031
:1046B0004006002804D5FFE7119801F0C3F9FFE791
:1046C00012B080BD80B582B00090009820B9FFE79D
:1046D00001208DF8070040E00098806908B1FFE7ED
:1046E00000E0FFE7009890F8410040B9FFE700992B
:1046F000002081F84000009800F034F8FFE70099AE
:10470000242081F8410000980168C86820F4005016
:10471000C860009801F07CFA00980168086920F4EC
:104720009040086100980168486920F02A004861BB
:1047300000980168C86840F40050C86000990020E3
:104740004864009A202182F84110009A82F84210B1
:10475000009948638DF80700FFE79DF8070002B055
:1047600080BD000080B590B00F9000200E900D909D
:104770000C900B900A900F98006841F20001C4F26F
:10478000010188426AD1FFE7FFE70020099043F664
:104790004400C4F20200016841F0100101600068A9
:1047A00000F0100009900998FFE7FFE7002008904B
:1047B00043F63000C4F20200016841F002010160DA
:1047C000006800F0020008900898FFE7C0200A90F7
:1047D00002200B90002004900C9003200D900720E5
:1047E0000E9040F20040C4F202000AA9FDF7DAFA86
:1047F000049940F22810C2F20000059046F2B84237
:10480000C4F2020202604FF0006242604022826005
:10481000C1604FF48062026141618161C1614FF406
:10482000403202624162FDF7A3F918B1FFE7FCF7DD
:10483000B5F8FFE7FFE70F9840F22811C2F2000138
:1048400081630F988863FFE72520039000221146BB
:10485000FDF734FD0398FDF727FD6AE00F98006827
:1048600044F60001C4F20001884261D1FFE7FFE78E
:104870000020079043F64000C4F20200016841F4B2
:1048800080210160006800F4802007900798FFE70E
:10489000FFE70020069043F63000C4F202000168F2
:1048A00041F004010160006800F0040006900698E1
:1048B000FFE74FF440600A9002200B900020019027
:1048C0000C9003200D9007200E9040F60000C4F2DB
:1048D00002000AA9FDF766FA019940F28810C2F2B7
:1048E0000000029046F22802C4F2020202604FF079
:1048F000006242608160C1604FF480620261416188
:104900008161C1614FF4403202624162FDF730F9CA
:1049100018B1FFE7FCF742F8FFE7FFE70F9840F216
:104920008811C2F20001C1630F988863FFE7FFE7B7
:10493000FFE710B080BD000080B584B00290019107
:10494000ADF80220029890F84200202817D1FFE726
:10495000019820B1FFE7BDF8020020B9FFE7012070
:104960008DF80F000FE0029900200863029801996A
:10497000BDF8022001F0EAF98DF80F0003E00220F3
:104980008DF80F00FFE79DF80F0004B080BD000018
:1049900081B0009001B0704781B0009001B07047C5
:1049A00081B0009001B07047FFE7FEE780B582B0AC
:1049B00040F20010C2F20000019046F20041C4F241
:1049C000000101600321416000218160C1604FF45A
:1049D000102202614FF400124261017601224276F8
:1049E0008176C17601774177FCF78CFC18B1FFE73F
:1049F000FBF7D4FFFFE702B080BD000080B586B0B2
:104A0000FFE70020059043F63000C4F20200016881
:104A100041F480010160006800F480000590059871
:104A2000FFE7FFE70020049043F63000C4F20200E5
:104A3000016841F400110160006800F40010049066
:104A40000498FFE70C200190002202921146FDF726
:104A500035FC0198FDF728FC029A46200390114688
:104A6000FDF72CFC0398FDF71FFC06B080BD00008D
:104A700080B590B000200F900E900D900C900B9090
:104A8000FFE700200A9043F63000C4F202000168FC
:104A900041F002010160006800F002000A900A98EB
:104AA000FFE7FFE70020099043F63000C4F2020060
:104AB000016841F001010160006800F00100099007
:104AC0000998FFE7FFE70020089043F63000C4F2A2
:104AD0000200016841F008010160006800F0080070
:104AE00008900898FFE7FFE70020079043F63000A2
:104AF000C4F20200016841F004010160006800F0A6
:104B0000040007900798FFE7FFE70020069043F6B0
:104B10003000C4F20200016841F0800101600068C9
:104B200000F0800006900698FFE70020C4F2020023
:104B300001901021009101220292FDF70FFB029AD1
:104B400040F20040C4F2020004901146FDF706FB5B
:104B5000009A019802990B920C910D9100210391FA
:104B60000E910BA90591FDF71DF9029B039A04987C
:104B700005990B930C930D930E92FDF713F910B05A
:104B800080BD000080B582B040F2E810C2F20000A3
:104B9000019043F20001C4F2010101604FF48271FF
:104BA000416000218160C1600222026101224261F4
:104BB0004FF4007282613822C261016241628162F7
:104BC0000A21C162FEF7F0F918B1FFE7FBF7E6FE34
:104BD000FFE702B080BD000080B588B000210091E1
:104BE00007910691059104910391029140F24020B2
:104BF000C2F2000001900022C4F201020260A7226A
:104C00004260816040F2E732C260016141618161CE
:104C1000FEF7B4FF18B1FFE7FBF7C0FEFFE74FF464
:104C20008050049040F24020C2F2000004A9FFF737
:104C3000B3F818B1FFE7FBF7B1FEFFE700200290E1
:104C4000039040F24020C2F2000002A9FEF704FFE8
:104C500018B1FFE7FBF7A2FEFFE708B080BD000038
:104C600080B582B040F28820C2F20000019041F28B
:104C70000001C4F2010101604FF4E1314160002103
:104C80008160C16001610C2242618161C161FFF7F5
:104C900019FD18B1FFE7FBF781FEFFE702B080BD09
:104CA00080B582B040F2D020C2F20000019044F6FC
:104CB0000001C4F2000101604FF4E13141600021C4
:104CC0008160C16001610C2242618161C161FFF7B5
:104CD000F9FC18B1FFE7FBF761FEFFE702B080BD0A
:104CE000FFE7FEE7FFE7FEE788B007900691059231
:104CF000079800F0070004900498C0F10700052809
:104D000003D3FFE70420019004E00498C0F10700FA
:104D10000190FFE70198039004980430062803D817
:104D2000FFE70020009003E0049803380090FFE7BD
:104D30000098029006980399012202FA01F10139C4
:104D40000840029B984005999A40013A1140084357
:104D500008B0704783B002908DED010ACDED000AD6
:104D600001980299886100980299C861029890EDB3
:104D7000060A90ED071A30EE410A80ED080A029803
:104D800090ED000A90ED081A20EE010A80ED0B0A62
:104D9000029890ED081A90ED090A30EE010A80EDB4
:104DA000090A029890ED031A90ED090AB4EE410A3F
:104DB000F1EE10FA04DDFFE70299C8684862FFE7E8
:104DC000029890ED031A90ED090AB1EE411AB4EE83
:104DD000410AF1EE10FA08DAFFE7029890ED030AB3
:104DE000B1EE400A80ED090AFFE7029890ED010A52
:104DF00090ED091A20EE010A80ED0C0A029890ED60
:104E0000020A90ED081A90ED0A2A31EE421A20EEBD
:104E1000010A80ED0D0A0299086A8862029890EDF5
:104E20000B0A90ED0C2A90ED0D1A30EE020A30EECE
:104E3000010A80ED050A029890ED041A90ED050A2A
:104E4000B4EE410AF1EE10FA04DDFFE702990869B9
:104E50004861FFE7029890ED041A90ED050AB1EE63
:104E6000411AB4EE410AF1EE10FA08DAFFE70298AF
:104E700090ED040AB1EE400A80ED050AFFE70298C2
:104E800090ED050A03B0704786B005908DED040AD9
:104E9000CDED030A8DED021ACDED011A8DED002A3C
:104EA0000498059908600398059948600298059947
:104EB000886001980599C86000980599086105996E
:104EC00000204861059988610599C86105990862C3
:104ED00005994862059988620599C8620599086331
:104EE0000599486306B070477047000080B58CB0E4
:104EF0000B900B9808B9FFE7DEE00B99087849782A
:104F000040EA01216FF3DF2140F27800C2F2000095
:104F1000099001800B9A51789278C90841EA4211B0
:104F20006FF3DF2141800B9A9178D3781279890948
:104F300041EA830141EA82216FF3DF2181800B9AEC
:104F400011795279490841EAC2116FF3DF21C1801A
:104F50000B994979890901720B994979C1F30111BA
:104F600041720B9A9179D27941EA022141810B9ADF
:104F7000117A527A41EA022181810B9A917AD27A8E
:104F800041EA0221C1810B99097B01740B99497B8C
:104F9000417400886A460121059111604FF4B67191
:104FA000029140F2946203924FF0FF33089301F0B4
:104FB0009DFB0299039ADDF814C0089B099840F202
:104FC000C00EC2F2000ECDF810E08EED000A40884F
:104FD000EE46CEF800C001F089FB0299039ADDF895
:104FE00014C0089B0998DDF810E08EED010A808856
:104FF000EE46CEF800C001F079FB0299039ADDF885
:1050000014C0089B0998DDF810E08EED020AC088F4
:10501000EE46CEF800C001F069FB049A0599089BA2
:10502000099882ED030A027A013A40F25A4CC2F220
:10503000000C8CF80020427A013A8CF80120B0F97B
:105040000A006A46116048F20001CFF6FF7106912E
:105050004FF40042079201F049FBDDF814C00699B5
:10506000079A089B099840F2343EC2F2000ECDF830
:1050700028E08EED000AB0F90C00EE46CEF800C034
:1050800001F034FBDDF814C00699079A089B0998D3
:10509000DDF828E08EED010AB0F90E00EE46CEF8FC
:1050A00000C001F023FB09980A9981ED020A027CF5
:1050B0000A73407C4873FFE70CB080BD80B540F2B6
:1050C000E810C2F20000FDF757FE80BD80B582B047
:1050D00001900198806B009000990020C88700998A
:1050E000C8860098FDF73CFE02B080BD80B586B052
:1050F00004900391029204984068B0F5827F13D126
:10510000FFE704988068B0F5004F06D0FFE70498E9
:105110008068B0F5806F07D1FFE7049801680868E0
:1051200020F040000860FFE704984068B0F5827FF7
:1051300031D1FFE704988068B0F5806F15D0FFE7A4
:105140000498039B02996A4611608021002200F0B6
:10515000A5F848B1FFE70499486D40F02000486584
:1051600003208DF817002FE014E00498039B0299A8
:105170006A4611600121002200F090F848B1FFE773
:105180000499486D40F02000486503208DF8170011
:105190001AE0FFE714E00498039B02996A46116045
:1051A0000121002200F07AF848B1FFE70499486D28
:1051B00040F02000486503208DF8170004E0FFE769
:1051C00000208DF81700FFE79DF8170006B080BD9E
:1051D00080B586B00490039102920498039B0299D3
:1051E0006A4611600221012200F058F848B1FFE739
:1051F0000499486D40F02000486503208DF81700A1
:1052000048E040F20000C2F2000000684AF6AB211C
:10521000CAF6AA21A0FB011000094DF68361C4F271
:105220001B31A0FB0110800C4FF47A7148430190B0
:1052300004984068B0F5827F15D1FFE70498039B7E
:1052400002996A4611608021002200F027F848B1D7
:10525000FFE70499486D40F02000486503208DF871
:10526000170017E012E0FFE7019808B9FFE70CE02C
:10527000019801380190FFE7049800688068C1B286
:105280000020B0EBD11FEFD1FFE7FFE700208DF842
:105290001700FFE79DF8170006B080BD80B58AB003
:1052A000DDF830C0089007918DF81B200593059814
:1052B0000190FCF76BFF024601980C99891A08448B
:1052C0000390FCF763FF0290039840F20001C2F2E2
:1052D00000010968C1F3CB3148430490FFE7089807
:1052E0000068806807990840401AB0FA80F04009C9
:1052F0009DF81B1088425ED0FFE70598013000281A
:1053000058D0FFE7FCF742FF0299401A0399884200
:1053100004D2FFE70398002842D1FFE7089801680C
:10532000486820F0E000486008984068B0F5827F47
:1053300013D1FFE708988068B0F5004F06D0FFE76B
:1053400008988068B0F5806F07D1FFE7089801687A
:10535000086820F040000860FFE70898806AB0F510
:10536000005F0FD1FFE7FFE708980168086820F4A5
:105370000050086008980168086840F40050086010
:10538000FFE7FFE70899012081F85100FFE708993E
:10539000002081F85000FFE703208DF827000EE081
:1053A000049818B9FFE700200390FFE7049801383C
:1053B0000490FFE793E700208DF82700FFE79DF8B2
:1053C00027000AB080BD00007047000080B582B0A1
:1053D000009000980138B0F1807F03D3FFE70120EF
:1053E000019019E0009801384EF21401CEF200014C
:1053F00008604FF0FF300F2100F0A2FD4EF21801BF
:10540000CEF20001002008604EF21002CEF200023F
:10541000072111600190FFE7019802B080BD0000F4
:1054200080B5FCF7B9FE80BD80B594B008A83021E6
:10543000FAF7D7FF0020079006900590049003909C
:10544000FFE70020029043F64000C4F2020001682A
:1054500041F080510160006800F080500290029895
:10546000FFE7FFE70020019047F20000C4F20000D0
:10547000016841F480410160006800F480400190BF
:105480000198FFE7012008904FF480300990022036
:105490000E904FF480010F9106211091A8211191D7
:1054A00012900420139008A8FDF7FAF818B1FFE74E
:1054B000FBF774FAFFE70F2003900220049000200E
:1054C00005904FF4A05006904FF48050079003A829
:1054D0000521FCF715FF18B1FFE7FBF75FFAFFE7BF
:1054E00014B080BD4EF68851CEF20001086840F439
:1054F000700008607047000080B540F24020C2F2A2
:105500000000FEF70FFD80BD80B540F24020C2F2E2
:105510000000FEF707FD80BD80B540F24020C2F2DA
:105520000000FEF7FFFC80BD80B540F24020C2F2D3
:105530000000FEF7F7FC80BD83B002900191029855
:105540000068009002980021C4F20101884225D031
:10555000FFE70298B0F1804F20D0FFE7029840F2B9
:105560000041C4F20001884218D0FFE7029840F6DB
:105570000001C4F20001884210D0FFE7029840F613
:105580000041C4F20001884208D0FFE7029840F2CF
:105590000041C4F2010188420AD1FFE7009820F0DF
:1055A0007000009001984168009808430090FFE760
:1055B00002980021C4F20101884255D0FFE7029809
:1055C000B0F1804F50D0FFE7029840F20041C4F2A2
:1055D0000001884248D0FFE7029840F60001C4F27B
:1055E0000001884240D0FFE7029840F60041C4F233
:1055F0000001884238D0FFE7029840F20041C4F22F
:105600000101884230D0FFE7029844F20001C4F261
:105610000101884228D0FFE7029844F20041C4F219
:105620000101884220D0FFE7029844F60001C4F24D
:105630000101884218D0FFE7029841F60001C4F248
:105640000001884210D0FFE7029841F60041C4F201
:105650000001884208D0FFE7029842F20001C4F23C
:10566000000188420AD1FFE7009820F440700090C2
:105670000198C168009808430090FFE7009820F067
:1056800080000199496908430090009802990860D8
:10569000019880680299C86201980068029988623E
:1056A00002980021C4F20101884208D0FFE7029865
:1056B00040F20041C4F20101884205D1FFE70198A0
:1056C000006902990863FFE7029901204861029886
:1056D0000069C00730B1FFE70299086920F00100B6
:1056E0000861FFE703B0704785B004900391029210
:1056F0000193049880680090009820F47F40009007
:1057000003980299019A41EA022101430098084353
:10571000009000980499886005B0704783B00290AB
:105720000191029880680090009820F0700000902D
:1057300001980099084340F00700009000980299F2
:10574000886003B07047000085B004900391029216
:105750000498006A00900499086A20F00100086229
:10576000049880690190019820F0F000019002995E
:10577000019840EA01100190009820F00A00009082
:105780000399009808430090019804998861009853
:105790000499086205B0704785B0049003910292A5
:1057A0000498006A00900499086A20F010000862CA
:1057B000049880690190019820F47040019002994A
:1057C000019840EA01300190009820F0A00000907C
:1057D0000399009840EA01100090019804998861AB
:1057E00000980499086205B07047000080B582B047
:1057F00001900198806B009000990020C885009965
:10580000C8840098FEF744FD02B080BD80B584B026
:105810000390002002900398806B0190019800682B
:105820004069C0B2C0090290019890F84100212857
:105830000AD1FFE7029838B1FFE701990020C88438
:10584000019800F013F9FFE7019800684069C0F380
:1058500080100290019890F8420022280AD1FFE7B8
:10586000029838B1FFE701990020C885019800F03F
:105870009FF8FFE70199486C40F0100048640198D8
:10588000FEF706FD04B080BD80B586B00590059892
:10589000806B0490059800680068C00500285AD401
:1058A000FFE704990020C885FFE7FFE70498006838
:1058B00050E8030F20F480700390FFE703990498E9
:1058C000026842E803100028F0D1FFE7FFE7FFE796
:1058D000FFE70498006850E8050F20F001000290EF
:1058E000FFE702990498026842E805100028F0D109
:1058F000FFE7FFE7FFE7FFE70498006850E8050FC0
:1059000020F040000190FFE701990498026842E806
:1059100005100028F0D1FFE7FFE70499202081F867
:1059200042000498006B012814D1FFE7FFE7FFE76E
:105930000498006850E8030F20F010000090FFE783
:1059400000990498026842E803100028F0D1FFE7AC
:10595000FFE7FFE7FFE70499002048630498006B26
:10596000012805D1FFE70498818DFEF767FC03E06D
:105970000498FFF70DF8FFE706B080BD80B582B050
:1059800001900198806B0090009901204863009875
:10599000006B012806D1FFE70098818D4908FEF7CA
:1059A0004DFC03E00098FEF7F7FFFFE702B080BD73
:1059B00084B00390FFE7FFE70398006850E8030F07
:1059C00020F490700290FFE702990398026842E881
:1059D00003100028F0D1FFE7FFE7FFE7FFE7039898
:1059E000006850E8050F20F001000190FFE70199E1
:1059F0000398026842E805100028F0D1FFE7FFE7AE
:105A00000398006B012814D1FFE7FFE7FFE7039835
:105A1000006850E8030F20F010000090FFE70099A5
:105A20000398026842E803100028F0D1FFE7FFE77F
:105A3000FFE70399202081F84200039900200863C2
:105A400004B0704780B582B0019001980168C868C1
:105A500020F04000C8600199202081F841000198A1
:105A6000FEF79EFF002002B080BD000082B00190D2
:105A7000FFE7FFE70198006850E8030F20F0C0003F
:105A80000090FFE700990198026842E8031000289F
:105A9000F0D1FFE7FFE70199202081F8410002B033
:105AA0007047000080B586B00490049890F84200DA
:105AB000222840F0A480FFE704988068B0F5805F5A
:105AC00015D1FFE70498006988B9FFE7002003902B
:105AD0000498806A02900498006840686FF35F2021
